:100000000C942A000C9447000C9447000C94470071
:100010000C9447000C9447000C9447000C94470044
:100020000C9447000C9447000C9493070C944700E1
:100030000C9447000C94AA070C9447000C944700BA
:100040000C9447000C9447000C9447000C94470014
:100050000C94470011241FBECFE5D8E0DEBFCDBF12
:1000600011E0A0E6B0E0ECECF0E102C005900D92EA
:10007000AE3DB107D9F721E0AEEDB1E001C01D9270
:10008000A33EB207E1F70E94F4030C9464080C94B9
:10009000000080EC87B987E886B9089597B1907E13
:1000A0008F71892B87B986B1806486B986B18295B4
:1000B0008F70E1F386B1806186B924B185B190E09B
:1000C000982F8827822B0895823491F018F4813478
:1000D00031F029C08334A9F08434E1F024C089B31D
:1000E00090E002C0959587956A95E2F78170089532
:1000F00086B390E002C0959587956A95E2F7817086
:10010000089583B390E002C0959587956A95E2F7CC
:100110008170089580B390E002C0959587956A95A7
:10012000E2F78170089580E00895982F969596954E
:1001300096958770913021F130F09230F1F1933043
:1001400009F458C00895613069F44BB321E030E000
:10015000B90102C0660F771F8A95E2F7CB01842BA5
:100160008BBB08954BB321E030E0B90102C0660FAC
:10017000771F8A95E2F7CB01809584238BBB089586
:10018000613069F448B321E030E0B90102C0660F84
:10019000771F8A95E2F7CB01842B88BB089548B37B
:1001A00021E030E0B90102C0660F771F8A95E2F7BF
:1001B000CB018095842388BB0895613069F445B3F1
:1001C00021E030E0B90102C0660F771F8A95E2F79F
:1001D000CB01842B85BB089545B321E030E0B90104
:1001E00002C0660F771F8A95E2F7CB0180958423C2
:1001F00085BB0895613069F442B321E030E0B90174
:1002000002C0660F771F8A95E2F7CB01842B82BB71
:10021000089542B321E030E0B90102C0660F771FB4
:100220008A95E2F7CB018095842382BB0895982FAD
:10023000969596959695482F4770913081F028F0C5
:100240009230B9F09330F9F028C099B3892F90E03B
:1002500002C0959587954A95E2F78170089526B377
:1002600030E0C90102C0959587954A95E2F7817003
:10027000089523B330E0C90102C0959587954A954A
:10028000E2F78170089520B330E0C90102C095956E
:1002900087954A95E2F78170089580E0089580E09F
:1002A000A0C0982F969596959695282F27709130F7
:1002B00061F138F0923009F44CC0933009F46DC00C
:1002C0008FC0E82FF0E0EE0FFF1FE05AFF4F908144
:1002D000913069F49AB341E050E0BA0102C0660F70
:1002E000771F2A95E2F79B01292B2ABB79C09AB385
:1002F00041E050E0BA0102C0660F771F2A95E2F78D
:100300009B01209529232ABB6BC0E82FF0E0EE0F5C
:10031000FF1FE05AFF4F9081913069F497B341E09D
:1003200050E0BA0102C0660F771F2A95E2F79B01E1
:10033000292B27BB55C097B341E050E0BA0102C05A
:10034000660F771F2A95E2F79B012095292327BB8B
:1003500047C0E82FF0E0EE0FFF1FE05AFF4F9081FB
:10036000913069F494B341E050E0BA0102C0660FE5
:10037000771F2A95E2F79B01292B24BB31C094B348
:1003800041E050E0BA0102C0660F771F2A95E2F7FC
:100390009B012095292324BB23C0E82FF0E0EE0F1A
:1003A000FF1FE05AFF4F9081913069F491B341E013
:1003B00050E0BA0102C0660F771F2A95E2F79B0151
:1003C000292B21BB0DC091B341E050E0BA0102C01E
:1003D000660F771F2A95E2F79B012095292321BB01
:1003E0008F5F803208F45DCF0895E199FECF9FBB07
:1003F0008EBB8CB381608CBB8DB30895DC01E19919
:10040000FECF20E030E00FC0F901EA0FFB1FFFBB79
:10041000EEBB9CB391609CBBFB01E20FF31F9DB34D
:1004200090832F5F3F4F2417350770F30895E199AC
:10043000FECF9FBB8EBB8CB381608CBB8DB3861708
:1004400039F06DBB8CB384608CBB8CB382608CBB89
:100450000895CF93DF93DC01EA0120E030E01AC079
:10046000E199FECFC9018A0F9B1F9FBB8EBB9CB336
:1004700091609CBB5DB3FB01E20FF31F90815917A4
:1004800039F09DBB9CB394609CBB9CB392609CBBB9
:100490002F5F3F4F2C173D0718F3DF91CF91089541
:1004A000DC0190E00DC0292F30E0FD01E20FF31FC9
:1004B0005081FB01E20FF31F2081521305C09F5FA3
:1004C000941788F381E0089580E008951F93CF93F7
:1004D000DF9310E010C0C12FD0E0FE01E155FF4FC7
:1004E00061E080810E949500C455DF4F61E0888102
:1004F0000E9495001F5F133070F3DF91CF911F9121
:100500000895EF92FF920F931F93CF93DF93D0E064
:1005100034C0ED2EF12CF701E155FF4F60E08081F2
:100520000E949500C0E01FC00C2F10E0F801E455B8
:10053000FF4F80810E941701811114C0F801E4551A
:10054000FF4F80810E9417018823C1F3C701880FE4
:10055000991F8E0D9F1D80569F4FFC01E00FF11FCC
:1005600080810EC0CF5FC330F8F2F701E155FF4F35
:1005700061E080810E949500DF5FD43050F280E01E
:10058000DF91CF911F910F91FF90EF900895EF921F
:10059000FF920F931F93CF93DF93D0E0FF24FA9441
:1005A0003EC00D2F10E0F801E155FF4F60E0808163
:1005B0000E9495002FEF89EF90E0215080409040FD
:1005C000E1F700C00000C0E020C064E06C0F83E4ED
:1005D0000E9464008093DE01811116C0EC2EF12C84
:1005E000F701E455FF4F80810E9417018823B1F382
:1005F000C801880F991F800F911F80569F4FFC01E3
:10060000EE0DFF1DF08003C0CF5FC330F0F2F801A4
:10061000E155FF4F61E080810E949500DF5FD4309B
:1006200008F4BFCF8F2DDF91CF911F910F91FF90D5
:10063000EF900895CF93C82F8BB38F709C2F907F2E
:10064000892B8BBB60E089E00E94950060E088E028
:100650000E94950087EC90E00197F1F700C0000040
:1006600061E088E00E9495009FEF29EF30E0915013
:1006700020403040E1F700C000002BB330E1C39FC1
:10068000C0011124922F9F70892B8BBB60E089E001
:100690000E94950060E088E00E94950087EC90E061
:1006A0000197F1F700C0000061E088E00E9495002A
:1006B0008FE19EE40197F1F700C00000CF9108950B
:1006C0002FE785EB91E0215080409040E1F700C09A
:1006D000000060E08AE00E94950060E089E00E94EE
:1006E000950083E30E941A038FE891E00197F1F7E8
:1006F00000C0000082E30E941A0388E20E941A03ED
:1007000086E00E941A038CE00E941A0381E00E9496
:100710001A038FED9EE20197F1F700C000000895E3
:10072000CF93C82F8BB38F709C2F907F892B8BBB5F
:1007300061E089E00E94950060E088E00E949500F9
:1007400087EC90E00197F1F700C0000061E088E0DD
:100750000E9495008FE19EE40197F1F700C0000030
:100760002BB330E1C39FC0011124922F9F70892BBE
:100770008BBB61E089E00E94950060E088E00E9408
:10078000950087EC90E00197F1F700C0000061E070
:1007900088E00E9495008FE19EE40197F1F700C088
:1007A0000000CF9108950F931F93CF938C01C0E069
:1007B00003C00E949003CF5FF801EC0FF11D808110
:1007C0008111F7CFCF911F910F910895813019F4C6
:1007D0008FE7860F06C0823019F48FEB860F01C0B9
:1007E00080E80E941A030895CF93DF93CDB7DEB758
:1007F00028970FB6F894DEBF0FBECDBF78940E9445
:10080000B9070E94D6070E94FF0760E070E0CB01A5
:100810000E94C1070E944F010E9460030E9466026D
:1008200081B3806281BB87B3806E87BB0E94490021
:1008300088E893E197BD86BD81B3846081BB81B3B5
:10084000886081BB8AB382608ABBF090E20183EB4F
:1008500090E00E94D30361E082E00E94E60384EC12
:1008600090E00E94D3032FEF33ED80E3215030401E
:100870008040E1F700C0000081E00E941A0380E0A0
:1008800091E00E94F501813039F481E091E00E940D
:10089000F501813009F4D1C080ED90E00E94D303CE
:1008A00061E082E00E94E6038AED90E00E94D303BB
:1008B0009FEF23ED30E3915020403040E1F700C03E
:1008C000000081E00E941A0385EE90E00E94D303AD
:1008D00061E082E00E94E60389EE90E00E94D3038B
:1008E0008FEF89838A838B838C8310E02AC00E94D8
:1008F000C70201C08FEF8F3FD1F3E1E0F0E0EC0FD2
:10090000FD1FE10FF11D80830E9490038FEF95EA98
:100910002EE0815090402040E1F700C000006CE0E4
:10092000610F82E00E94E6038AE20E9490033FEF9B
:1009300081EE94E0315080409040E1F700C000002B
:100940001F5F1430B8F244E050E0BE016F5F7F4F8C
:1009500082E091E00E94290261E081E091E00E9442
:10096000170281E00E941A032FEF39E688E1215037
:1009700030408040E1F700C0000081E00E941A038F
:1009800084EF90E00E94D30361E082E00E94E603DE
:1009900083E091E00E94D30310E02AC00E94C702C6
:1009A00001C08FEF8F3FD1F3E1E0F0E0EC0FFD1FCE
:1009B000E10FF11D80830E9490039FEF25EA3EE046
:1009C000915020403040E1F700C000006CE0610F22
:1009D00082E00E94E6038AE20E9490038FEF91EE8C
:1009E00024E0815090402040E1F700C000001F5FEC
:1009F0001430B8F244E050E0BE016F5F7F4F86E0F4
:100A000091E00E94290261E081E091E00E941702DA
:100A100081E00E941A038FE091E00E94D3033FEF30
:100A200089E698E1315080409040E1F700C0000035
:100A300081E00E941A03E12C05C08AE091E00E9447
:100A4000F501E82E80E00E944E00969587959695D8
:100A500087958C31910538F088B3806C88BB88B35A
:100A60008F7D88BB05C0469718F488B38F7788BB05
:100A700082E00E944E009C01992314F42D5F3F4FA9
:100A8000C90195958795959587950E94DD07809179
:100A9000E1018130C9F40E94F5071092E001109243
:100AA000DF011092E10181E00E941A038AE191E0E6
:100AB0000E94D3032FEF33ED80E32150304080407C
:100AC000E1F700C00000F12C00E01FEFB7C191E09A
:100AD000E91222C081E00E941A038BE291E00E9499
:100AE000D30361E082E00E94E60389E391E00E9483
:100AF000D30324E53DEC8DE293E02150304080406B
:100B00009040D9F700C000C0000060E08AE091E0AA
:100B10000E94170200E0E12C81E00E941A0388E4A1
:100B200091E00E94D30361E082E00E94E60385E544
:100B300091E00E94D30303C00E94C702182F1F3FF9
:100B4000D9F380ED810F823090F081E00E941A038A
:100B500084E691E00E94D3032FEF33ED80E3215030
:100B600030408040E1F700C000001FEF67C18FEF09
:100B70008D838E838F83888789838A838B838C83FD
:100B8000103309F4ADC0113309F453C157C181E0EA
:100B90000E941A0380E791E00E94D30361E082E0A3
:100BA0000E94E6038BE791E00E94D3039FEF23ECC2
:100BB00039E0915020403040E1F700C0000010E0E3
:100BC0002AC00E94C70201C08FEF8F3FD1F3E5E03A
:100BD000F0E0EC0FFD1FE10FF11D80830E949003F8
:100BE0008FEF95EA2EE0815090402040E1F700C061
:100BF00000006CE0610F82E00E94E6038AE20E943E
:100C000090033FEF81EE94E0315080409040E1F757
:100C100000C000001F5F1430B8F244E050E0BE0195
:100C20006F5F7F4F82E091E00E94FE0144E0BE01D1
:100C30006F5F7F4FCE0105960E945002813011F503
:100C40000E941A0386E891E00E94D30361E082E0EB
:100C50000E94E60381E991E00E94D3032FEF39E679
:100C600088E1215030408040E1F700C0000081E081
:100C70000E941A030E94DF0781E00E941A0300E02D
:100C800081E02CC00F5F81E00E941A038CE991E0A3
:100C90000E94D30361E082E00E94E60387EA91E0CC
:100CA0000E94D30383E3801B0E9490039FEF23EDF8
:100CB00030E3915020403040E1F700C0000081E077
:100CC0000E941A03033048F061E08AE091E00E943C
:100CD00017021FEFEE24E394B1C08F2D1FEF01C068
:100CE0008F2D813009F053CFF82EA8C081E00E94EB
:100CF0001A0382EB91E00E94D30361E082E00E943C
:100D0000E6038BE791E00E94D3038FEF93EC29E099
:100D1000815090402040E1F700C0000010E02AC060
:100D20000E94C70201C08FEF8F3FD1F3E5E0F0E0F2
:100D3000EC0FFD1FE10FF11D80830E9490033FEF38
:100D400085EA9EE0315080409040E1F700C000000D
:100D50006CE0610F82E00E94E6038AE20E94900349
:100D60002FEF31EE84E0215030408040E1F700C0A9
:100D700000001F5F1430B8F244E050E0BE016F5F26
:100D80007F4F86E091E00E94FE0144E0BE016F5F6C
:100D90007F4FCE0105960E9450028130F9F40E94E7
:100DA0001A038DEB91E00E94D30361E082E00E9480
:100DB000E60382EB91E00E94D3039FEF29E638E13E
:100DC000915020403040E1F700C000000E94DF0752
:100DD00081E00E941A0300E082E029C00F5F81E0F9
:100DE0000E941A0388EC91E00E94D30361E082E044
:100DF0000E94E60383ED91E00E94D30383E3801B0E
:100E00000E9490038FEF93ED20E3815090402040AB
:100E1000E1F700C00000033048F061E08AE091E0B3
:100E20000E9417021FEFEE24E39408C08F2D1FEFDE
:100E300001C08F2D823009F059CFF82EFF2009F420
:100E400046CE31E0F31238C08091E201813339F4AB
:100E50006AE570E080E090E00E94C1072DC08091BB
:100E6000E201823331F460E070E0CB010E94C107FF
:100E700023C08091E201833371F492B384E0892727
:100E800082BB8FEF99E628E1815090402040E1F746
:100E900000C0000011C08091E201843369F492B374
:100EA00088E0892782BB3FEF89E698E13150804096
:100EB0009040E1F700C0000022E0F21223C08091D0
:100EC000E201813371F492B384E0892782BB3FEF62
:100ED00089E698E1315080409040E1F700C0000081
:100EE00011C08091E201823369F492B388E08927CE
:100EF00082BB2FEF39E688E1215030408040E1F796
:100F000000C000000E948102882309F49BCD0E944A
:100F100090039FEF23EC39E0915020403040E1F7FF
:100F200000C000008FCD1F920F920FB60F921124B8
:100F30008F939F938091DF019091E00101969093B0
:100F4000E0018093DF019F918F910F900FBE0F9072
:100F50001F9018951F920F920FB60F9211248F9326
:100F60008CB18093E2018F910F900FBE0F901F9074
:100F7000189581B3806281BB82E88FBD8BE18EBD05
:100F800008959B01AC01265A3F4F4F4F5F4FAAEF88
:100F9000B0E00E94280824EB30E040E050E00E94DE
:100FA000090827503F4F3BBD2ABD089581B3806893
:100FB00081BB85B5826685BD089583BD08958EE4A5
:100FC0008CBF83B7886083BF83B78F7B83BF83B7B2
:100FD000816083BF83B78D7F83BF83B7846083BF06
:100FE000789489B7826089BF089583B78E7F83BF65
:100FF00083B78D7F83BF83B78B7F83BF08958AB10B
:1010000088698AB980B5866880BD87E689B910BCD1
:101010000895052E97FB1EF400940E94200857FDAA
:1010200007D00E94330807FC03D04EF40C9420082C
:1010300050954095309521953F4F4F4F5F4F089504
:1010400090958095709561957F4F8F4F9F4F089534
:101050000E945508A59F900DB49F900DA49F800DF0
:10106000911D11240895A1E21A2EAA1BBB1BFD019C
:101070000DC0AA1FBB1FEE1FFF1FA217B307E40777
:10108000F50720F0A21BB30BE40BF50B661F771FCF
:10109000881F991F1A9469F76095709580959095AF
:1010A0009B01AC01BD01CF010895A29FB001B39F88
:1010B000C001A39F700D811D1124911DB29F700D61
:0C10C000811D1124911D0895F894FFCFAC
:1010CC000001010101010101010101010101010105
:1010DC0001010101010101010101010101010101F4
:1010EC0001010101010101010000000000000101EA
:1010FC0000010101010101010101010101010101D5
:10110C003132333435363738392A3023141516102A
:10111C0011121377656C636F6D6520746F20736D9E
:10112C0061727400686F6D652073797374656D00FE
:10113C004C4F47494E20464F52004649525354207B
:10114C0054494D45005345542041444D494E20507F
:10115C004153530053657420477565737420506177
:10116C00737300477565737420506173733A005044
:10117C006173732053617665640073657373696F73
:10118C006E2074696D65206F7574006C6F67696E85
:10119C0020626C6F636B6564007761697420323018
:1011AC00207365636F6E640073656C656374206D8A
:1011BC006F64653A00303A41444D494E20313A55FE
:1011CC005345520077726F6E6720696E70757400AC
:1011DC0061646D696E206D6F646500656E74657217
:1011EC002070617373005249474854205041535347
:1011FC000041444D494E204D4F44450057524F4EEF
:10120C00472050415353005452494553204C4546B6
:10121C0054006775657374206D6F6465007269673F
:10122C00687420706173730077726F6E67207061E1
:0E123C007373007472696573206C65667400CC
:00000001FF
